{
  "_format": "hh-sol-artifact-1",
  "contractName": "DappVotes",
  "sourceName": "contracts/DappVotes.sol",
  "abi": [
    {
      "anonymous": false,
      "inputs": [
        {
          "indexed": true,
          "internalType": "address",
          "name": "voter",
          "type": "address"
        },
        {
          "indexed": false,
          "internalType": "uint256",
          "name": "timestamp",
          "type": "uint256"
        }
      ],
      "name": "Voted",
      "type": "event"
    },
    {
      "inputs": [
        {
          "internalType": "uint256",
          "name": "id",
          "type": "uint256"
        },
        {
          "internalType": "string",
          "name": "name",
          "type": "string"
        },
        {
          "internalType": "string",
          "name": "image",
          "type": "string"
        }
      ],
      "name": "contest",
      "outputs": [],
      "stateMutability": "nonpayable",
      "type": "function"
    },
    {
      "inputs": [
        {
          "internalType": "string",
          "name": "image",
          "type": "string"
        },
        {
          "internalType": "string",
          "name": "title",
          "type": "string"
        },
        {
          "internalType": "string",
          "name": "description",
          "type": "string"
        },
        {
          "internalType": "uint256",
          "name": "startsAt",
          "type": "uint256"
        },
        {
          "internalType": "uint256",
          "name": "endsAt",
          "type": "uint256"
        }
      ],
      "name": "createPoll",
      "outputs": [],
      "stateMutability": "nonpayable",
      "type": "function"
    },
    {
      "inputs": [
        {
          "internalType": "uint256",
          "name": "id",
          "type": "uint256"
        }
      ],
      "name": "deletePoll",
      "outputs": [],
      "stateMutability": "nonpayable",
      "type": "function"
    },
    {
      "inputs": [
        {
          "internalType": "uint256",
          "name": "pollId",
          "type": "uint256"
        },
        {
          "internalType": "uint256",
          "name": "cid",
          "type": "uint256"
        }
      ],
      "name": "getContestant",
      "outputs": [
        {
          "components": [
            {
              "internalType": "uint256",
              "name": "id",
              "type": "uint256"
            },
            {
              "internalType": "string",
              "name": "image",
              "type": "string"
            },
            {
              "internalType": "string",
              "name": "name",
              "type": "string"
            },
            {
              "internalType": "address",
              "name": "voter",
              "type": "address"
            },
            {
              "internalType": "uint256",
              "name": "votes",
              "type": "uint256"
            },
            {
              "internalType": "address[]",
              "name": "voters",
              "type": "address[]"
            }
          ],
          "internalType": "struct DappVotes.ContestantStruct",
          "name": "",
          "type": "tuple"
        }
      ],
      "stateMutability": "view",
      "type": "function"
    },
    {
      "inputs": [
        {
          "internalType": "uint256",
          "name": "pollId",
          "type": "uint256"
        }
      ],
      "name": "getContestants",
      "outputs": [
        {
          "components": [
            {
              "internalType": "uint256",
              "name": "id",
              "type": "uint256"
            },
            {
              "internalType": "string",
              "name": "image",
              "type": "string"
            },
            {
              "internalType": "string",
              "name": "name",
              "type": "string"
            },
            {
              "internalType": "address",
              "name": "voter",
              "type": "address"
            },
            {
              "internalType": "uint256",
              "name": "votes",
              "type": "uint256"
            },
            {
              "internalType": "address[]",
              "name": "voters",
              "type": "address[]"
            }
          ],
          "internalType": "struct DappVotes.ContestantStruct[]",
          "name": "Contestants",
          "type": "tuple[]"
        }
      ],
      "stateMutability": "view",
      "type": "function"
    },
    {
      "inputs": [
        {
          "internalType": "uint256",
          "name": "id",
          "type": "uint256"
        }
      ],
      "name": "getPoll",
      "outputs": [
        {
          "components": [
            {
              "internalType": "uint256",
              "name": "id",
              "type": "uint256"
            },
            {
              "internalType": "string",
              "name": "image",
              "type": "string"
            },
            {
              "internalType": "string",
              "name": "title",
              "type": "string"
            },
            {
              "internalType": "string",
              "name": "description",
              "type": "string"
            },
            {
              "internalType": "uint256",
              "name": "votes",
              "type": "uint256"
            },
            {
              "internalType": "uint256",
              "name": "contestants",
              "type": "uint256"
            },
            {
              "internalType": "bool",
              "name": "deleted",
              "type": "bool"
            },
            {
              "internalType": "address",
              "name": "director",
              "type": "address"
            },
            {
              "internalType": "uint256",
              "name": "startsAt",
              "type": "uint256"
            },
            {
              "internalType": "uint256",
              "name": "endsAt",
              "type": "uint256"
            },
            {
              "internalType": "uint256",
              "name": "timestamp",
              "type": "uint256"
            }
          ],
          "internalType": "struct DappVotes.PollStruct",
          "name": "",
          "type": "tuple"
        }
      ],
      "stateMutability": "view",
      "type": "function"
    },
    {
      "inputs": [],
      "name": "getPolls",
      "outputs": [
        {
          "components": [
            {
              "internalType": "uint256",
              "name": "id",
              "type": "uint256"
            },
            {
              "internalType": "string",
              "name": "image",
              "type": "string"
            },
            {
              "internalType": "string",
              "name": "title",
              "type": "string"
            },
            {
              "internalType": "string",
              "name": "description",
              "type": "string"
            },
            {
              "internalType": "uint256",
              "name": "votes",
              "type": "uint256"
            },
            {
              "internalType": "uint256",
              "name": "contestants",
              "type": "uint256"
            },
            {
              "internalType": "bool",
              "name": "deleted",
              "type": "bool"
            },
            {
              "internalType": "address",
              "name": "director",
              "type": "address"
            },
            {
              "internalType": "uint256",
              "name": "startsAt",
              "type": "uint256"
            },
            {
              "internalType": "uint256",
              "name": "endsAt",
              "type": "uint256"
            },
            {
              "internalType": "uint256",
              "name": "timestamp",
              "type": "uint256"
            }
          ],
          "internalType": "struct DappVotes.PollStruct[]",
          "name": "Polls",
          "type": "tuple[]"
        }
      ],
      "stateMutability": "view",
      "type": "function"
    },
    {
      "inputs": [
        {
          "internalType": "uint256",
          "name": "id",
          "type": "uint256"
        },
        {
          "internalType": "string",
          "name": "image",
          "type": "string"
        },
        {
          "internalType": "string",
          "name": "title",
          "type": "string"
        },
        {
          "internalType": "string",
          "name": "description",
          "type": "string"
        },
        {
          "internalType": "uint256",
          "name": "startsAt",
          "type": "uint256"
        },
        {
          "internalType": "uint256",
          "name": "endsAt",
          "type": "uint256"
        }
      ],
      "name": "updatePoll",
      "outputs": [],
      "stateMutability": "nonpayable",
      "type": "function"
    },
    {
      "inputs": [
        {
          "internalType": "uint256",
          "name": "id",
          "type": "uint256"
        },
        {
          "internalType": "uint256",
          "name": "cid",
          "type": "uint256"
        }
      ],
      "name": "vote",
      "outputs": [],
      "stateMutability": "nonpayable",
      "type": "function"
    }
  ],
  "bytecode": "0x608060405234801561001057600080fd5b50611f48806100206000396000f3fe608060405234801561001057600080fd5b50600436106100935760003560e01c806366dd51dc1161006657806366dd51dc146100fe578063b384abef14610111578063cee9dc4514610124578063d343641114610144578063f0d0bc451461016457600080fd5b8063029433f014610098578063120fe89b146100ad5780631a8cbcaa146100cb5780631f35b51d146100eb575b600080fd5b6100ab6100a636600461186b565b610177565b005b6100b56103e5565b6040516100c29190611a18565b60405180910390f35b6100de6100d9366004611a7a565b610721565b6040516100c29190611a93565b6100ab6100f9366004611a7a565b610964565b6100ab61010c366004611aad565b610a6e565b6100ab61011f366004611b1a565b610c93565b610137610132366004611a7a565b610eea565b6040516100c29190611be8565b610157610152366004611b1a565b6111ee565b6040516100c29190611c3d565b6100ab610172366004611c50565b6113e9565b60008681526002602052604090205460ff166101ae5760405162461bcd60e51b81526004016101a590611cea565b60405180910390fd5b60008681526003602052604090206006015461010090046001600160a01b031633146102125760405162461bcd60e51b8152602060048201526013602482015272556e617574686f72697a656420656e7469747960681b60448201526064016101a5565b600084511161025b5760405162461bcd60e51b81526020600482015260156024820152745469746c652063616e6e6f7420626520656d70747960581b60448201526064016101a5565b60008351116102ac5760405162461bcd60e51b815260206004820152601b60248201527f4465736372697074696f6e2063616e6e6f7420626520656d707479000000000060448201526064016101a5565b60008551116102f95760405162461bcd60e51b8152602060048201526019602482015278496d6167652055524c2063616e6e6f7420626520656d70747960381b60448201526064016101a5565b60008681526003602052604090206006015460ff161561035b5760405162461bcd60e51b815260206004820152601760248201527f506f6c6c696e6720616c7265616479207374617274656400000000000000000060448201526064016101a5565b81811161037a5760405162461bcd60e51b81526004016101a590611d12565b60008681526003602052604090206002016103958582611de3565b506000868152600360208190526040909120016103b28482611de3565b50600086815260036020526040902060078101839055600881018290556001016103dc8682611de3565b50505050505050565b6060600060015b600054811161042e5760008181526003602052604090206006015460ff1661041c578161041881611eb9565b9250505b8061042681611eb9565b9150506103ec565b508067ffffffffffffffff811115610448576104486117c8565b60405190808252806020026020018201604052801561048157816020015b61046e6116aa565b8152602001906001900390816104665790505b509150600060015b600054811161071b5760008181526003602052604090206006015460ff16610709576003600082815260200190815260200160002060405180610160016040529081600082015481526020016001820180546104e490611d5a565b80601f016020809104026020016040519081016040528092919081815260200182805461051090611d5a565b801561055d5780601f106105325761010080835404028352916020019161055d565b820191906000526020600020905b81548152906001019060200180831161054057829003601f168201915b5050505050815260200160028201805461057690611d5a565b80601f01602080910402602001604051908101604052809291908181526020018280546105a290611d5a565b80156105ef5780601f106105c4576101008083540402835291602001916105ef565b820191906000526020600020905b8154815290600101906020018083116105d257829003601f168201915b5050505050815260200160038201805461060890611d5a565b80601f016020809104026020016040519081016040528092919081815260200182805461063490611d5a565b80156106815780601f1061065657610100808354040283529160200191610681565b820191906000526020600020905b81548152906001019060200180831161066457829003601f168201915b50505091835250506004820154602082015260058201546040820152600682015460ff81161515606083015261010090046001600160a01b03166080820152600782015460a0820152600882015460c082015260099091015460e09091015284836106eb81611eb9565b9450815181106106fd576106fd611ed2565b60200260200101819052505b8061071381611eb9565b915050610489565b50505090565b6107296116aa565b60036000838152602001908152602001600020604051806101600160405290816000820154815260200160018201805461076290611d5a565b80601f016020809104026020016040519081016040528092919081815260200182805461078e90611d5a565b80156107db5780601f106107b0576101008083540402835291602001916107db565b820191906000526020600020905b8154815290600101906020018083116107be57829003601f168201915b505050505081526020016002820180546107f490611d5a565b80601f016020809104026020016040519081016040528092919081815260200182805461082090611d5a565b801561086d5780601f106108425761010080835404028352916020019161086d565b820191906000526020600020905b81548152906001019060200180831161085057829003601f168201915b5050505050815260200160038201805461088690611d5a565b80601f01602080910402602001604051908101604052809291908181526020018280546108b290611d5a565b80156108ff5780601f106108d4576101008083540402835291602001916108ff565b820191906000526020600020905b8154815290600101906020018083116108e257829003601f168201915b50505091835250506004820154602082015260058201546040820152600682015460ff81161515606083015261010090046001600160a01b03166080820152600782015460a0820152600882015460c082015260099091015460e09091015292915050565b60008181526002602052604090205460ff166109925760405162461bcd60e51b81526004016101a590611cea565b60008181526003602052604090206006015461010090046001600160a01b031633146109f65760405162461bcd60e51b8152602060048201526013602482015272556e617574686f72697a656420656e7469747960681b60448201526064016101a5565b600081815260036020526040902060040154600111610a505760405162461bcd60e51b8152602060048201526016602482015275506f6c6c2068617320766f74657320616c726561647960501b60448201526064016101a5565b6000908152600360205260409020600601805460ff19166001179055565b60008381526002602052604090205460ff16610a9c5760405162461bcd60e51b81526004016101a590611cea565b6000825111610ae45760405162461bcd60e51b81526020600482015260146024820152736e616d652063616e6e6f7420626520656d70747960601b60448201526064016101a5565b6000815111610b2d5760405162461bcd60e51b8152602060048201526015602482015274696d6167652063616e6e6f7420626520656d70747960581b60448201526064016101a5565b600083815260056020908152604080832033845290915290205460ff1615610b8b5760405162461bcd60e51b8152602060048201526011602482015270105b1c9958591e4818dbdb9d195cdd1959607a1b60448201526064016101a5565b610b99600180546001019055565b610ba161170f565b6040818101849052602080830184815233606085015260018054855260008881526006845284812086518252909352929091208351815590518392820190610be99082611de3565b5060408201516002820190610bfe9082611de3565b5060608201516003820180546001600160a01b0319166001600160a01b039092169190911790556080820151600482015560a08201518051610c4a91600584019160209091019061174e565b50505060008481526005602081815260408084203385528252808420805460ff191660011790558784526003909152822001805491610c8883611eb9565b919050555050505050565b60008281526002602052604090205460ff16610cc15760405162461bcd60e51b81526004016101a590611cea565b600082815260046020908152604080832033845290915290205460ff1615610d1b5760405162461bcd60e51b815260206004820152600d60248201526c105b1c9958591e481d9bdd1959609a1b60448201526064016101a5565b60008281526003602052604090206006015460ff1615610d755760405162461bcd60e51b8152602060048201526015602482015274506f6c6c696e67206e6f7420617661696c61626c6560581b60448201526064016101a5565b600082815260036020526040902060070154610d8f61168b565b10158015610db45750600082815260036020526040902060080154610db261168b565b105b610e005760405162461bcd60e51b815260206004820152601960248201527f566f74696e67206d75737420626520696e2073657373696f6e0000000000000060448201526064016101a5565b6000828152600360205260408120600401805491610e1d83611eb9565b909155505060008281526006602090815260408083208484529091528120600401805491610e4a83611eb9565b9091555050600082815260066020908152604080832084845282528083206005018054600181810183559185528385200180546001600160a01b03191633908117909155868552600484528285208186529093529220805460ff19169092179091557f4d99b957a2bc29a30ebd96a7be8e68fe50a3c701db28a91436490b7d53870ca4610ed561168b565b60405190815260200160405180910390a25050565b6060600060015b6001548111610f3b576000848152600660209081526040808320848452909152902054819003610f295781610f2581611eb9565b9250505b80610f3381611eb9565b915050610ef1565b508067ffffffffffffffff811115610f5557610f556117c8565b604051908082528060200260200182016040528015610f8e57816020015b610f7b61170f565b815260200190600190039081610f735790505b509150600060015b60015481116111e65760008581526006602090815260408083208484529091529020548190036111d4576000858152600660209081526040808320848452825291829020825160c08101909352805483526001810180549192840191610ffb90611d5a565b80601f016020809104026020016040519081016040528092919081815260200182805461102790611d5a565b80156110745780601f1061104957610100808354040283529160200191611074565b820191906000526020600020905b81548152906001019060200180831161105757829003601f168201915b5050505050815260200160028201805461108d90611d5a565b80601f01602080910402602001604051908101604052809291908181526020018280546110b990611d5a565b80156111065780601f106110db57610100808354040283529160200191611106565b820191906000526020600020905b8154815290600101906020018083116110e957829003601f168201915b505050505081526020016003820160009054906101000a90046001600160a01b03166001600160a01b03166001600160a01b0316815260200160048201548152602001600582018054806020026020016040519081016040528092919081815260200182805480156111a157602002820191906000526020600020905b81546001600160a01b03168152600190910190602001808311611183575b5050505050815250508483806111b690611eb9565b9450815181106111c8576111c8611ed2565b60200260200101819052505b806111de81611eb9565b915050610f96565b505050919050565b6111f661170f565b6000838152600660209081526040808320858452825291829020825160c0810190935280548352600181018054919284019161123190611d5a565b80601f016020809104026020016040519081016040528092919081815260200182805461125d90611d5a565b80156112aa5780601f1061127f576101008083540402835291602001916112aa565b820191906000526020600020905b81548152906001019060200180831161128d57829003601f168201915b505050505081526020016002820180546112c390611d5a565b80601f01602080910402602001604051908101604052809291908181526020018280546112ef90611d5a565b801561133c5780601f106113115761010080835404028352916020019161133c565b820191906000526020600020905b81548152906001019060200180831161131f57829003601f168201915b505050505081526020016003820160009054906101000a90046001600160a01b03166001600160a01b03166001600160a01b0316815260200160048201548152602001600582018054806020026020016040519081016040528092919081815260200182805480156113d757602002820191906000526020600020905b81546001600160a01b031681526001909101906020018083116113b9575b50505050508152505090505b92915050565b60008451116114325760405162461bcd60e51b81526020600482015260156024820152745469746c652063616e6e6f7420626520656d70747960581b60448201526064016101a5565b60008351116114835760405162461bcd60e51b815260206004820152601b60248201527f4465736372697074696f6e2063616e6e6f7420626520656d707479000000000060448201526064016101a5565b60008551116114d05760405162461bcd60e51b8152602060048201526019602482015278496d6167652055524c2063616e6e6f7420626520656d70747960381b60448201526064016101a5565b6000821161152a5760405162461bcd60e51b815260206004820152602160248201527f53746172742064617465206d7573742062652067726561746572207468616e206044820152600360fc1b60648201526084016101a5565b8181116115495760405162461bcd60e51b81526004016101a590611d12565b611557600080546001019055565b61155f6116aa565b6000548152604081018590526060810184905260208101869052610100810183905261012081018290523360e082015261159761168b565b61014082015280516000908152600360209081526040909120825181559082015182919060018201906115ca9082611de3565b50604082015160028201906115df9082611de3565b50606082015160038201906115f49082611de3565b506080820151600482015560a0820151600582015560c082015160068201805460e08501516001600160a81b0319909116921515610100600160a81b031916929092176101006001600160a01b0390931683021790558201516007820155610120820151600882015561014090910151600990910155516000908152600260205260409020805460ff191660011790555050505050565b6000611699426103e8611ee8565b6116a5906103e8611eff565b905090565b60405180610160016040528060008152602001606081526020016060815260200160608152602001600081526020016000815260200160001515815260200160006001600160a01b031681526020016000815260200160008152602001600081525090565b6040518060c0016040528060008152602001606081526020016060815260200160006001600160a01b0316815260200160008152602001606081525090565b8280548282559060005260206000209081019282156117a3579160200282015b828111156117a357825182546001600160a01b0319166001600160a01b0390911617825560209092019160019091019061176e565b506117af9291506117b3565b5090565b5b808211156117af57600081556001016117b4565b634e487b7160e01b600052604160045260246000fd5b600082601f8301126117ef57600080fd5b813567ffffffffffffffff8082111561180a5761180a6117c8565b604051601f8301601f19908116603f01168101908282118183101715611832576118326117c8565b8160405283815286602085880101111561184b57600080fd5b836020870160208301376000602085830101528094505050505092915050565b60008060008060008060c0878903121561188457600080fd5b86359550602087013567ffffffffffffffff808211156118a357600080fd5b6118af8a838b016117de565b965060408901359150808211156118c557600080fd5b6118d18a838b016117de565b955060608901359150808211156118e757600080fd5b506118f489828a016117de565b9350506080870135915060a087013590509295509295509295565b6000815180845260005b8181101561193557602081850181015186830182015201611919565b506000602082860101526020601f19601f83011685010191505092915050565b60006101608251845260208301518160208601526119758286018261190f565b9150506040830151848203604086015261198f828261190f565b915050606083015184820360608601526119a9828261190f565b9150506080830151608085015260a083015160a085015260c08301516119d360c086018215159052565b5060e08301516119ee60e08601826001600160a01b03169052565b50610100838101519085015261012080840151908501526101409283015192909301919091525090565b6000602080830181845280855180835260408601915060408160051b870101925083870160005b82811015611a6d57603f19888603018452611a5b858351611955565b94509285019290850190600101611a3f565b5092979650505050505050565b600060208284031215611a8c57600080fd5b5035919050565b602081526000611aa66020830184611955565b9392505050565b600080600060608486031215611ac257600080fd5b83359250602084013567ffffffffffffffff80821115611ae157600080fd5b611aed878388016117de565b93506040860135915080821115611b0357600080fd5b50611b10868287016117de565b9150509250925092565b60008060408385031215611b2d57600080fd5b50508035926020909101359150565b80518252600060208083015160c082860152611b5b60c086018261190f565b905060408401518582036040870152611b74828261190f565b6060868101516001600160a01b03908116918901919091526080808801519089015260a080880151898403918a0191909152805180845290860194506000935090918501905b80841015611bdc57845183168252938501936001939093019290850190611bba565b50979650505050505050565b6000602080830181845280855180835260408601915060408160051b870101925083870160005b82811015611a6d57603f19888603018452611c2b858351611b3c565b94509285019290850190600101611c0f565b602081526000611aa66020830184611b3c565b600080600080600060a08688031215611c6857600080fd5b853567ffffffffffffffff80821115611c8057600080fd5b611c8c89838a016117de565b96506020880135915080821115611ca257600080fd5b611cae89838a016117de565b95506040880135915080821115611cc457600080fd5b50611cd1888289016117de565b9598949750949560608101359550608001359392505050565b6020808252600e908201526d141bdb1b081b9bdd08199bdd5b9960921b604082015260600190565b60208082526028908201527f456e642064617465206d7573742062652067726561746572207468616e207374604082015267617274206461746560c01b606082015260800190565b600181811c90821680611d6e57607f821691505b602082108103611d8e57634e487b7160e01b600052602260045260246000fd5b50919050565b601f821115611dde57600081815260208120601f850160051c81016020861015611dbb5750805b601f850160051c820191505b81811015611dda57828155600101611dc7565b5050505b505050565b815167ffffffffffffffff811115611dfd57611dfd6117c8565b611e1181611e0b8454611d5a565b84611d94565b602080601f831160018114611e465760008415611e2e5750858301515b600019600386901b1c1916600185901b178555611dda565b600085815260208120601f198616915b82811015611e7557888601518255948401946001909101908401611e56565b5085821015611e935787850151600019600388901b60f8161c191681555b5050505050600190811b01905550565b634e487b7160e01b600052601160045260246000fd5b600060018201611ecb57611ecb611ea3565b5060010190565b634e487b7160e01b600052603260045260246000fd5b80820281158282048414176113e3576113e3611ea3565b808201808211156113e3576113e3611ea356fea2646970667358221220e1fbcbb4c0cab03921b5dccc742cbc2a8421b7b7ded502815998ade76a5ce40c64736f6c63430008110033",
  "linkReferences": {},
  "deployedLinkReferences": {}
}