{
  "_format": "hh-sol-artifact-1",
  "contractName": "DappVotes",
  "sourceName": "contracts/DappVotes.sol",
  "abi": [
    {
      "anonymous": false,
      "inputs": [
        {
          "indexed": true,
          "internalType": "address",
          "name": "voter",
          "type": "address"
        },
        {
          "indexed": false,
          "internalType": "uint256",
          "name": "timestamp",
          "type": "uint256"
        }
      ],
      "name": "Voted",
      "type": "event"
    },
    {
      "inputs": [
        {
          "internalType": "uint256",
          "name": "id",
          "type": "uint256"
        },
        {
          "internalType": "string",
          "name": "name",
          "type": "string"
        },
        {
          "internalType": "string",
          "name": "image",
          "type": "string"
        }
      ],
      "name": "contest",
      "outputs": [],
      "stateMutability": "nonpayable",
      "type": "function"
    },
    {
      "inputs": [
        {
          "internalType": "string",
          "name": "image",
          "type": "string"
        },
        {
          "internalType": "string",
          "name": "title",
          "type": "string"
        },
        {
          "internalType": "string",
          "name": "description",
          "type": "string"
        },
        {
          "internalType": "uint256",
          "name": "startsAt",
          "type": "uint256"
        },
        {
          "internalType": "uint256",
          "name": "endsAt",
          "type": "uint256"
        }
      ],
      "name": "createPoll",
      "outputs": [],
      "stateMutability": "nonpayable",
      "type": "function"
    },
    {
      "inputs": [
        {
          "internalType": "uint256",
          "name": "id",
          "type": "uint256"
        }
      ],
      "name": "deletePoll",
      "outputs": [],
      "stateMutability": "nonpayable",
      "type": "function"
    },
    {
      "inputs": [
        {
          "internalType": "uint256",
          "name": "pollId",
          "type": "uint256"
        },
        {
          "internalType": "uint256",
          "name": "cid",
          "type": "uint256"
        }
      ],
      "name": "getContestant",
      "outputs": [
        {
          "components": [
            {
              "internalType": "uint256",
              "name": "id",
              "type": "uint256"
            },
            {
              "internalType": "string",
              "name": "image",
              "type": "string"
            },
            {
              "internalType": "string",
              "name": "name",
              "type": "string"
            },
            {
              "internalType": "address",
              "name": "voter",
              "type": "address"
            },
            {
              "internalType": "uint256",
              "name": "votes",
              "type": "uint256"
            },
            {
              "internalType": "address[]",
              "name": "voters",
              "type": "address[]"
            }
          ],
          "internalType": "struct DappVotes.ContestantStruct",
          "name": "",
          "type": "tuple"
        }
      ],
      "stateMutability": "view",
      "type": "function"
    },
    {
      "inputs": [
        {
          "internalType": "uint256",
          "name": "pollId",
          "type": "uint256"
        }
      ],
      "name": "getContestants",
      "outputs": [
        {
          "components": [
            {
              "internalType": "uint256",
              "name": "id",
              "type": "uint256"
            },
            {
              "internalType": "string",
              "name": "image",
              "type": "string"
            },
            {
              "internalType": "string",
              "name": "name",
              "type": "string"
            },
            {
              "internalType": "address",
              "name": "voter",
              "type": "address"
            },
            {
              "internalType": "uint256",
              "name": "votes",
              "type": "uint256"
            },
            {
              "internalType": "address[]",
              "name": "voters",
              "type": "address[]"
            }
          ],
          "internalType": "struct DappVotes.ContestantStruct[]",
          "name": "Contestants",
          "type": "tuple[]"
        }
      ],
      "stateMutability": "view",
      "type": "function"
    },
    {
      "inputs": [
        {
          "internalType": "uint256",
          "name": "id",
          "type": "uint256"
        }
      ],
      "name": "getPoll",
      "outputs": [
        {
          "components": [
            {
              "internalType": "uint256",
              "name": "id",
              "type": "uint256"
            },
            {
              "internalType": "string",
              "name": "image",
              "type": "string"
            },
            {
              "internalType": "string",
              "name": "title",
              "type": "string"
            },
            {
              "internalType": "string",
              "name": "description",
              "type": "string"
            },
            {
              "internalType": "uint256",
              "name": "votes",
              "type": "uint256"
            },
            {
              "internalType": "uint256",
              "name": "contestants",
              "type": "uint256"
            },
            {
              "internalType": "bool",
              "name": "deleted",
              "type": "bool"
            },
            {
              "internalType": "address",
              "name": "director",
              "type": "address"
            },
            {
              "internalType": "uint256",
              "name": "startsAt",
              "type": "uint256"
            },
            {
              "internalType": "uint256",
              "name": "endsAt",
              "type": "uint256"
            },
            {
              "internalType": "uint256",
              "name": "timestamp",
              "type": "uint256"
            },
            {
              "internalType": "address[]",
              "name": "voters",
              "type": "address[]"
            },
            {
              "internalType": "string[]",
              "name": "avatars",
              "type": "string[]"
            }
          ],
          "internalType": "struct DappVotes.PollStruct",
          "name": "",
          "type": "tuple"
        }
      ],
      "stateMutability": "view",
      "type": "function"
    },
    {
      "inputs": [],
      "name": "getPolls",
      "outputs": [
        {
          "components": [
            {
              "internalType": "uint256",
              "name": "id",
              "type": "uint256"
            },
            {
              "internalType": "string",
              "name": "image",
              "type": "string"
            },
            {
              "internalType": "string",
              "name": "title",
              "type": "string"
            },
            {
              "internalType": "string",
              "name": "description",
              "type": "string"
            },
            {
              "internalType": "uint256",
              "name": "votes",
              "type": "uint256"
            },
            {
              "internalType": "uint256",
              "name": "contestants",
              "type": "uint256"
            },
            {
              "internalType": "bool",
              "name": "deleted",
              "type": "bool"
            },
            {
              "internalType": "address",
              "name": "director",
              "type": "address"
            },
            {
              "internalType": "uint256",
              "name": "startsAt",
              "type": "uint256"
            },
            {
              "internalType": "uint256",
              "name": "endsAt",
              "type": "uint256"
            },
            {
              "internalType": "uint256",
              "name": "timestamp",
              "type": "uint256"
            },
            {
              "internalType": "address[]",
              "name": "voters",
              "type": "address[]"
            },
            {
              "internalType": "string[]",
              "name": "avatars",
              "type": "string[]"
            }
          ],
          "internalType": "struct DappVotes.PollStruct[]",
          "name": "Polls",
          "type": "tuple[]"
        }
      ],
      "stateMutability": "view",
      "type": "function"
    },
    {
      "inputs": [
        {
          "internalType": "uint256",
          "name": "id",
          "type": "uint256"
        },
        {
          "internalType": "string",
          "name": "image",
          "type": "string"
        },
        {
          "internalType": "string",
          "name": "title",
          "type": "string"
        },
        {
          "internalType": "string",
          "name": "description",
          "type": "string"
        },
        {
          "internalType": "uint256",
          "name": "startsAt",
          "type": "uint256"
        },
        {
          "internalType": "uint256",
          "name": "endsAt",
          "type": "uint256"
        }
      ],
      "name": "updatePoll",
      "outputs": [],
      "stateMutability": "nonpayable",
      "type": "function"
    },
    {
      "inputs": [
        {
          "internalType": "uint256",
          "name": "id",
          "type": "uint256"
        },
        {
          "internalType": "uint256",
          "name": "cid",
          "type": "uint256"
        }
      ],
      "name": "vote",
      "outputs": [],
      "stateMutability": "nonpayable",
      "type": "function"
    }
  ],
  "bytecode": "0x608060405234801561001057600080fd5b5061240b806100206000396000f3fe608060405234801561001057600080fd5b50600436106100935760003560e01c806366dd51dc1161006657806366dd51dc146100fe578063b384abef14610111578063cee9dc4514610124578063d343641114610144578063f0d0bc451461016457600080fd5b8063029433f014610098578063120fe89b146100ad5780631a8cbcaa146100cb5780631f35b51d146100eb575b600080fd5b6100ab6100a6366004611c91565b610177565b005b6100b561043f565b6040516100c29190611f10565b60405180910390f35b6100de6100d9366004611f72565b6108ba565b6040516100c29190611f8b565b6100ab6100f9366004611f72565b610c3c565b6100ab61010c366004611fa5565b610d46565b6100ab61011f366004612012565b610f98565b610137610132366004611f72565b61121b565b6040516100c291906120ab565b610157610152366004612012565b61151f565b6040516100c29190612100565b6100ab610172366004612113565b61171a565b60008681526002602052604090205460ff166101ae5760405162461bcd60e51b81526004016101a5906121ad565b60405180910390fd5b60008681526003602052604090206006015461010090046001600160a01b031633146102125760405162461bcd60e51b8152602060048201526013602482015272556e617574686f72697a656420656e7469747960681b60448201526064016101a5565b600084511161025b5760405162461bcd60e51b81526020600482015260156024820152745469746c652063616e6e6f7420626520656d70747960581b60448201526064016101a5565b60008351116102ac5760405162461bcd60e51b815260206004820152601b60248201527f4465736372697074696f6e2063616e6e6f7420626520656d707479000000000060448201526064016101a5565b60008551116102f95760405162461bcd60e51b8152602060048201526019602482015278496d6167652055524c2063616e6e6f7420626520656d70747960381b60448201526064016101a5565b60008681526003602052604090206006015460ff161561035b5760405162461bcd60e51b815260206004820152601760248201527f506f6c6c696e6720616c72656164792064656c6574656400000000000000000060448201526064016101a5565b6000868152600360205260409020600401546001116103b55760405162461bcd60e51b8152602060048201526016602482015275506f6c6c2068617320766f74657320616c726561647960501b60448201526064016101a5565b8181116103d45760405162461bcd60e51b81526004016101a5906121d5565b60008681526003602052604090206002016103ef85826122a6565b5060008681526003602081905260409091200161040c84826122a6565b506000868152600360205260409020600781018390556008810182905560010161043686826122a6565b50505050505050565b6060600060015b60005481116104885760008181526003602052604090206006015460ff1661047657816104728161237c565b9250505b806104808161237c565b915050610446565b508067ffffffffffffffff8111156104a2576104a2611bee565b6040519080825280602002602001820160405280156104db57816020015b6104c8611a16565b8152602001906001900390816104c05790505b509150600060015b60005481116108b45760008181526003602052604090206006015460ff166108a25760036000828152602001908152602001600020604051806101a00160405290816000820154815260200160018201805461053e9061221d565b80601f016020809104026020016040519081016040528092919081815260200182805461056a9061221d565b80156105b75780601f1061058c576101008083540402835291602001916105b7565b820191906000526020600020905b81548152906001019060200180831161059a57829003601f168201915b505050505081526020016002820180546105d09061221d565b80601f01602080910402602001604051908101604052809291908181526020018280546105fc9061221d565b80156106495780601f1061061e57610100808354040283529160200191610649565b820191906000526020600020905b81548152906001019060200180831161062c57829003601f168201915b505050505081526020016003820180546106629061221d565b80601f016020809104026020016040519081016040528092919081815260200182805461068e9061221d565b80156106db5780601f106106b0576101008083540402835291602001916106db565b820191906000526020600020905b8154815290600101906020018083116106be57829003601f168201915b505050918352505060048201546020808301919091526005830154604080840191909152600684015460ff8116151560608501526001600160a01b0361010091829004166080850152600785015460a0850152600885015460c0850152600985015460e0850152600a850180548351818602810186019094528084529190940193919283018282801561079757602002820191906000526020600020905b81546001600160a01b03168152600190910190602001808311610779575b50505050508152602001600b8201805480602002602001604051908101604052809291908181526020016000905b828210156108715783829060005260206000200180546107e49061221d565b80601f01602080910402602001604051908101604052809291908181526020018280546108109061221d565b801561085d5780601f106108325761010080835404028352916020019161085d565b820191906000526020600020905b81548152906001019060200180831161084057829003601f168201915b5050505050815260200190600101906107c5565b505050915250859050836108848161237c565b94508151811061089657610896612395565b60200260200101819052505b806108ac8161237c565b9150506104e3565b50505090565b6108c2611a16565b60036000838152602001908152602001600020604051806101a0016040529081600082015481526020016001820180546108fb9061221d565b80601f01602080910402602001604051908101604052809291908181526020018280546109279061221d565b80156109745780601f1061094957610100808354040283529160200191610974565b820191906000526020600020905b81548152906001019060200180831161095757829003601f168201915b5050505050815260200160028201805461098d9061221d565b80601f01602080910402602001604051908101604052809291908181526020018280546109b99061221d565b8015610a065780601f106109db57610100808354040283529160200191610a06565b820191906000526020600020905b8154815290600101906020018083116109e957829003601f168201915b50505050508152602001600382018054610a1f9061221d565b80601f0160208091040260200160405190810160405280929190818152602001828054610a4b9061221d565b8015610a985780601f10610a6d57610100808354040283529160200191610a98565b820191906000526020600020905b815481529060010190602001808311610a7b57829003601f168201915b505050918352505060048201546020808301919091526005830154604080840191909152600684015460ff8116151560608501526001600160a01b0361010091829004166080850152600785015460a0850152600885015460c0850152600985015460e0850152600a8501805483518186028101860190945280845291909401939192830182828015610b5457602002820191906000526020600020905b81546001600160a01b03168152600190910190602001808311610b36575b50505050508152602001600b8201805480602002602001604051908101604052809291908181526020016000905b82821015610c2e578382906000526020600020018054610ba19061221d565b80601f0160208091040260200160405190810160405280929190818152602001828054610bcd9061221d565b8015610c1a5780601f10610bef57610100808354040283529160200191610c1a565b820191906000526020600020905b815481529060010190602001808311610bfd57829003601f168201915b505050505081526020019060010190610b82565b505050915250909392505050565b60008181526002602052604090205460ff16610c6a5760405162461bcd60e51b81526004016101a5906121ad565b60008181526003602052604090206006015461010090046001600160a01b03163314610cce5760405162461bcd60e51b8152602060048201526013602482015272556e617574686f72697a656420656e7469747960681b60448201526064016101a5565b600081815260036020526040902060040154600111610d285760405162461bcd60e51b8152602060048201526016602482015275506f6c6c2068617320766f74657320616c726561647960501b60448201526064016101a5565b6000908152600360205260409020600601805460ff19166001179055565b60008381526002602052604090205460ff16610d745760405162461bcd60e51b81526004016101a5906121ad565b6000825111610dbc5760405162461bcd60e51b81526020600482015260146024820152736e616d652063616e6e6f7420626520656d70747960601b60448201526064016101a5565b6000815111610e055760405162461bcd60e51b8152602060048201526015602482015274696d6167652063616e6e6f7420626520656d70747960581b60448201526064016101a5565b600083815260056020908152604080832033845290915290205460ff1615610e635760405162461bcd60e51b8152602060048201526011602482015270105b1c9958591e4818dbdb9d195cdd1959607a1b60448201526064016101a5565b610e71600180546001019055565b610e79611a89565b6040818101849052602080830184815233606085015260018054855260008881526006845284812086518252909352929091208351815590518392820190610ec190826122a6565b5060408201516002820190610ed690826122a6565b5060608201516003820180546001600160a01b0319166001600160a01b039092169190911790556080820151600482015560a08201518051610f22916005840191602090910190611ac8565b50505060008481526005602090815260408083203384528252808320805460ff1916600190811790915587845260038352908320600b01805491820181558352912001610f6f83826122a6565b506000848152600360205260408120600501805491610f8d8361237c565b919050555050505050565b60008281526002602052604090205460ff16610fc65760405162461bcd60e51b81526004016101a5906121ad565b600082815260046020908152604080832033845290915290205460ff16156110205760405162461bcd60e51b815260206004820152600d60248201526c105b1c9958591e481d9bdd1959609a1b60448201526064016101a5565b60008281526003602052604090206006015460ff161561107a5760405162461bcd60e51b8152602060048201526015602482015274506f6c6c696e67206e6f7420617661696c61626c6560581b60448201526064016101a5565b6000828152600360205260409020600701546110946119f7565b101580156110b957506000828152600360205260409020600801546110b76119f7565b105b6111055760405162461bcd60e51b815260206004820152601960248201527f566f74696e67206d75737420626520696e2073657373696f6e0000000000000060448201526064016101a5565b60008281526003602052604081206004018054916111228361237c565b90915550506000828152600360209081526040808320600a0180546001810182559084528284200180546001600160a01b0319163317905584835260068252808320848452909152812060040180549161117b8361237c565b9091555050600082815260066020908152604080832084845282528083206005018054600181810183559185528385200180546001600160a01b03191633908117909155868552600484528285208186529093529220805460ff19169092179091557f4d99b957a2bc29a30ebd96a7be8e68fe50a3c701db28a91436490b7d53870ca46112066119f7565b60405190815260200160405180910390a25050565b6060600060015b600154811161126c57600084815260066020908152604080832084845290915290205481900361125a57816112568161237c565b9250505b806112648161237c565b915050611222565b508067ffffffffffffffff81111561128657611286611bee565b6040519080825280602002602001820160405280156112bf57816020015b6112ac611a89565b8152602001906001900390816112a45790505b509150600060015b6001548111611517576000858152600660209081526040808320848452909152902054819003611505576000858152600660209081526040808320848452825291829020825160c0810190935280548352600181018054919284019161132c9061221d565b80601f01602080910402602001604051908101604052809291908181526020018280546113589061221d565b80156113a55780601f1061137a576101008083540402835291602001916113a5565b820191906000526020600020905b81548152906001019060200180831161138857829003601f168201915b505050505081526020016002820180546113be9061221d565b80601f01602080910402602001604051908101604052809291908181526020018280546113ea9061221d565b80156114375780601f1061140c57610100808354040283529160200191611437565b820191906000526020600020905b81548152906001019060200180831161141a57829003601f168201915b505050505081526020016003820160009054906101000a90046001600160a01b03166001600160a01b03166001600160a01b0316815260200160048201548152602001600582018054806020026020016040519081016040528092919081815260200182805480156114d257602002820191906000526020600020905b81546001600160a01b031681526001909101906020018083116114b4575b5050505050815250508483806114e79061237c565b9450815181106114f9576114f9612395565b60200260200101819052505b8061150f8161237c565b9150506112c7565b505050919050565b611527611a89565b6000838152600660209081526040808320858452825291829020825160c081019093528054835260018101805491928401916115629061221d565b80601f016020809104026020016040519081016040528092919081815260200182805461158e9061221d565b80156115db5780601f106115b0576101008083540402835291602001916115db565b820191906000526020600020905b8154815290600101906020018083116115be57829003601f168201915b505050505081526020016002820180546115f49061221d565b80601f01602080910402602001604051908101604052809291908181526020018280546116209061221d565b801561166d5780601f106116425761010080835404028352916020019161166d565b820191906000526020600020905b81548152906001019060200180831161165057829003601f168201915b505050505081526020016003820160009054906101000a90046001600160a01b03166001600160a01b03166001600160a01b03168152602001600482015481526020016005820180548060200260200160405190810160405280929190818152602001828054801561170857602002820191906000526020600020905b81546001600160a01b031681526001909101906020018083116116ea575b50505050508152505090505b92915050565b60008451116117635760405162461bcd60e51b81526020600482015260156024820152745469746c652063616e6e6f7420626520656d70747960581b60448201526064016101a5565b60008351116117b45760405162461bcd60e51b815260206004820152601b60248201527f4465736372697074696f6e2063616e6e6f7420626520656d707479000000000060448201526064016101a5565b60008551116118015760405162461bcd60e51b8152602060048201526019602482015278496d6167652055524c2063616e6e6f7420626520656d70747960381b60448201526064016101a5565b6000821161185b5760405162461bcd60e51b815260206004820152602160248201527f53746172742064617465206d7573742062652067726561746572207468616e206044820152600360fc1b60648201526084016101a5565b81811161187a5760405162461bcd60e51b81526004016101a5906121d5565b611888600080546001019055565b611890611a16565b6000548152604081018590526060810184905260208101869052610100810183905261012081018290523360e08201526118c86119f7565b61014082015280516000908152600360209081526040909120825181559082015182919060018201906118fb90826122a6565b506040820151600282019061191090826122a6565b506060820151600382019061192590826122a6565b506080820151600482015560a0820151600582015560c082015160068201805460e08501516001600160a81b0319909116921515610100600160a81b031916929092176101006001600160a01b03909316830217905582015160078201556101208201516008820155610140820151600982015561016082015180516119b591600a840191602090910190611ac8565b5061018082015180516119d291600b840191602090910190611b2d565b505090516000908152600260205260409020805460ff19166001179055505050505050565b6000611a05426103e86123ab565b611a11906103e86123c2565b905090565b604051806101a0016040528060008152602001606081526020016060815260200160608152602001600081526020016000815260200160001515815260200160006001600160a01b0316815260200160008152602001600081526020016000815260200160608152602001606081525090565b6040518060c0016040528060008152602001606081526020016060815260200160006001600160a01b0316815260200160008152602001606081525090565b828054828255906000526020600020908101928215611b1d579160200282015b82811115611b1d57825182546001600160a01b0319166001600160a01b03909116178255602090920191600190910190611ae8565b50611b29929150611b7f565b5090565b828054828255906000526020600020908101928215611b73579160200282015b82811115611b735782518290611b6390826122a6565b5091602001919060010190611b4d565b50611b29929150611b94565b5b80821115611b295760008155600101611b80565b80821115611b29576000611ba88282611bb1565b50600101611b94565b508054611bbd9061221d565b6000825580601f10611bcd575050565b601f016020900490600052602060002090810190611beb9190611b7f565b50565b634e487b7160e01b600052604160045260246000fd5b600082601f830112611c1557600080fd5b813567ffffffffffffffff80821115611c3057611c30611bee565b604051601f8301601f19908116603f01168101908282118183101715611c5857611c58611bee565b81604052838152866020858801011115611c7157600080fd5b836020870160208301376000602085830101528094505050505092915050565b60008060008060008060c08789031215611caa57600080fd5b86359550602087013567ffffffffffffffff80821115611cc957600080fd5b611cd58a838b01611c04565b96506040890135915080821115611ceb57600080fd5b611cf78a838b01611c04565b95506060890135915080821115611d0d57600080fd5b50611d1a89828a01611c04565b9350506080870135915060a087013590509295509295509295565b6000815180845260005b81811015611d5b57602081850181015186830182015201611d3f565b506000602082860101526020601f19601f83011685010191505092915050565b600081518084526020808501945080840160005b83811015611db45781516001600160a01b031687529582019590820190600101611d8f565b509495945050505050565b600082825180855260208086019550808260051b84010181860160005b84811015611e0a57601f19868403018952611df8838351611d35565b98840198925090830190600101611ddc565b5090979650505050505050565b60006101a0825184526020830151816020860152611e3782860182611d35565b91505060408301518482036040860152611e518282611d35565b91505060608301518482036060860152611e6b8282611d35565b9150506080830151608085015260a083015160a085015260c0830151611e9560c086018215159052565b5060e0830151611eb060e08601826001600160a01b03169052565b506101008381015190850152610120808401519085015261014080840151908501526101608084015185830382870152611eea8382611d7b565b925050506101808084015185830382870152611f068382611dbf565b9695505050505050565b6000602080830181845280855180835260408601915060408160051b870101925083870160005b82811015611f6557603f19888603018452611f53858351611e17565b94509285019290850190600101611f37565b5092979650505050505050565b600060208284031215611f8457600080fd5b5035919050565b602081526000611f9e6020830184611e17565b9392505050565b600080600060608486031215611fba57600080fd5b83359250602084013567ffffffffffffffff80821115611fd957600080fd5b611fe587838801611c04565b93506040860135915080821115611ffb57600080fd5b5061200886828701611c04565b9150509250925092565b6000806040838503121561202557600080fd5b50508035926020909101359150565b805182526000602082015160c0602085015261205360c0850182611d35565b90506040830151848203604086015261206c8282611d35565b91505060018060a01b0360608401511660608501526080830151608085015260a083015184820360a08601526120a28282611d7b565b95945050505050565b6000602080830181845280855180835260408601915060408160051b870101925083870160005b82811015611f6557603f198886030184526120ee858351612034565b945092850192908501906001016120d2565b602081526000611f9e6020830184612034565b600080600080600060a0868803121561212b57600080fd5b853567ffffffffffffffff8082111561214357600080fd5b61214f89838a01611c04565b9650602088013591508082111561216557600080fd5b61217189838a01611c04565b9550604088013591508082111561218757600080fd5b5061219488828901611c04565b9598949750949560608101359550608001359392505050565b6020808252600e908201526d141bdb1b081b9bdd08199bdd5b9960921b604082015260600190565b60208082526028908201527f456e642064617465206d7573742062652067726561746572207468616e207374604082015267617274206461746560c01b606082015260800190565b600181811c9082168061223157607f821691505b60208210810361225157634e487b7160e01b600052602260045260246000fd5b50919050565b601f8211156122a157600081815260208120601f850160051c8101602086101561227e5750805b601f850160051c820191505b8181101561229d5782815560010161228a565b5050505b505050565b815167ffffffffffffffff8111156122c0576122c0611bee565b6122d4816122ce845461221d565b84612257565b602080601f83116001811461230957600084156122f15750858301515b600019600386901b1c1916600185901b17855561229d565b600085815260208120601f198616915b8281101561233857888601518255948401946001909101908401612319565b50858210156123565787850151600019600388901b60f8161c191681555b5050505050600190811b01905550565b634e487b7160e01b600052601160045260246000fd5b60006001820161238e5761238e612366565b5060010190565b634e487b7160e01b600052603260045260246000fd5b808202811582820484141761171457611714612366565b808201808211156117145761171461236656fea264697066735822122003dd28a0987f1573480ae5edcec4e00eb681fd0ee8285f029837d4b8a729119364736f6c63430008110033",
  "linkReferences": {},
  "deployedLinkReferences": {}
}